:020000040000FA
:020000002528B1
:100008007E1480314E01961E0A280B2813288C1E58
:100018000E280F28132881319E21803123280B1F99
:10002800162817282328181F1A281B2823280E1FCC
:100038001E281F2823288131FA21803123287E1089
:1000480009002628FA01FB012030840000308500D1
:100058001430823163228031A03084000030850062
:1000680040308231632280312030840001308500A5
:1000780040308231632280317E1040014328813133
:10008800E42180318B170B1782316F2280314001B8
:10009800BD0100308131C92180317308F700720831
:1000A800F60081313221803177084001B9007608A5
:1000B800B80001308131C92180317308F700720816
:1000C800F600813169218031E8304001B400033005
:1000D800B50076083402BE007708353BBF003F08FC
:1000E800803AB40080303402031D7C2832303E024E
:1000F80003187F288028852832304001BE00003050
:10010800BF0040018C1989288A28AB280130B6071E
:100118000030B73DC93036063704031D94289528AA
:10012800AD283D08031999289B2801309C280030E8
:10013800B4003408BD003D03031DA328A428AD283E
:10014800BA01BA0AE830BB000330BC00AD28B601DA
:10015800B7013A03031DB128B228E12839082F0254
:10016800031DB82838082E02031CBB28BC28E12828
:10017800FF30BB07FF30BC3D3C08803AB4008030FC
:100188003402031DC92801303B02031CCC28CD28AA
:10019800DC2840013C08803AB4003F08803A340229
:1001A800031DD8283E083B020318DB28DC28DE287C
:1001B8004001BA014001AE01AF0105303102DD3026
:1001C80003193002031CE928EA28EE28BD01BA0108
:1001D800B001B1013D080319F228F3282A293F0884
:1001E800803AB40083303402031DFC28DF303E021D
:1001F800031CFF2800290629D0304001AC00073035
:10020800AD00152940013A0803190B290C291129B9
:100218003C08AD003B08AC0015293F08AD003E087E
:10022800AC0000302D023C3003192C0203181D29A4
:100238001E291F298C1200302D02513003192C025F
:10024800031C272928294D288C164D28BB01BC01E1
:10025800D030AC000730AD002829252840012235D0
:10026800203E860001308700403F7602F800413F7B
:10027800773BF9007808A0077908A13D2235203E90
:100288008600013087007608C03F7708C13F1F30DD
:100298002206230403195129522959292208013E0B
:1002A800A2000030233DA3005B29A201A30121087D
:1002B800F9002008F8000530F936F80C890B602998
:1002C8007808F6007908F70008007A35A03E86001D
:1002D8008701403F7602F800413F773BF9007808F4
:1002E8004001A4077908A53D7A35A03E860087011C
:1002F8007608C03F7708C13F1F307A067B04031990
:10030800862987298E297A08013EFA0000307B3D2C
:10031800FB009029FA01FB012508F9002408F800E0
:100328000530F936F80C890B95297808F600790814
:10033800F70008004E018C1201304001B007003070
:10034800B13D0130AE070030AF3D2B083102031D2F
:10035800AF292A083002031CB229B329C6292A0862
:10036800643EF00000302B3DF10031087102031D9E
:10037800BF2930087002031CC229C329C6294B01B2
:100388009217C8294B0192130800F5007508F4006C
:10039800F40DF40D41011D087406033974069D001F
:1003A8001D140D30890BD629000041019D149D189C
:1003B800DE29DF29DB291C08F3001B08F2000800EE
:1003C80082314C2281318231242281318231422290
:1003D8008131823154228131823135228131823119
:1003E8001022813182315C228131080000304001C5
:1003F8003102333003193002031C032A042A0D2A60
:100408004B0192134001B001B1012D08AB002C083B
:10041800AA004E010E13080062304B019F004F30B6
:100428009D009C014E018C1296160030F20000309F
:10043800F30082316922823180304B019E0008002E
:100448002030400198000730920007307E01B80044
:10045800B901BA013730BB003F30BC001A309400F4
:1004680008004B019201013093008E018D018C012F
:100478009101023090008F308F00080060305101E8
:100488008D008F01910106309300900192010800C0
:100498004F0196019701980199019A019B01080063
:1004A800E03041019E009B019C0101309D00080045
:1004B800833052019F004E010E1318170800640084
:1004C80080010131890B642A003473084001C1009E
:0C04D8007208C00008004B019E170800CD
:020000040001F9
:0A000E00EC3FFE3F9F3FFF1FFF3F46
:00000001FF
