:020000040000FA
:020000002528B1
:100008007E1480314E01961E0A280B2813288C1E58
:100018000E280F28132881318B21803123280B1FAC
:10002800162817282328181F1A281B2823280E1FCC
:100038001E281F2823288131E721803123287E109C
:1000480009002628FA01FB012030840000308500D1
:100058001230823150228031A03084000030850077
:1000680040308231502280312030840001308500B8
:1000780040308231502280317E1040014328813146
:10008800D12180318B170B1782315C228031F430FB
:100098004001B5000130B600D030B7000730B800D5
:1000A800E830B9000330BA0000308131B621803120
:1000B8007308F7007208F60081311F218031770834
:1000C8004001C4007608C30001308131B621803177
:1000D8007308F7007208F6008131562180317608DE
:1000E80040013902BF0077083A3BC000C01F7D2895
:1000F8007E288028BF01C0018C1983288428A52860
:100108000130B3070030B43DC93033063404031D51
:100118008E288F28A7283C08031993289528013092
:1001280096280030B2003208BC003C03031D9D280D
:100138009E28A728BB01BB0A3A08BE003908BD00A3
:10014800A728B301B4013B03031DAB28AC28DB2867
:1001580036082D02031DB22835082C02031CB528C9
:10016800B628DB28FF30BD07FF30BE3D3E08803A89
:10017800B20080303202031DC32801303D02031C47
:10018800C628C728D62840013E08803AB200400851
:10019800803A3202031DD2283F083D020318D528B1
:1001A800D628D8284001BB014001AC01AD013C086C
:1001B8000319DF28E02817294008803AB200833065
:1001C8003202031DE928DF303F02031CEC28ED282A
:1001D800F32840013808AB003708AA00022940017B
:1001E8003B080319F828F928FE283E08AB003D080B
:1001F800AA0002294008AB003F08AA0000302B02E1
:10020800643003192A0203180A290B290C298C12B5
:1002180000302B02973003192A02031C14291529D0
:1002280058288C165828BD01BE013808AB0037087D
:10023800AA001529252840012235203E86000130D4
:100248008700403F7602F800413F773BF900780885
:10025800A0077908A13D2235203E8600013087009D
:100268007608C03F7708C13F1F30220623040319D0
:100278003E293F2946292208013EA2000030233D9D
:10028800A3004829A201A3012108F9002008F800C9
:100298000530F936F80C890B4D297808F6007908ED
:1002A800F70008007A35A03E86008701403F7602B5
:1002B800F800413F773BF90078084001A407790826
:1002C800A53D7A35A03E860087017608C03F7708AD
:1002D800C13F1F307A067B040319732974297B29CF
:1002E8007A08013EFA0000307B3DFB007D29FA01C7
:1002F800FB012508F9002408F8000530F936F80C48
:10030800890B82297808F6007908F70008004E0161
:100318008C1201304001AE070030AF3D0130AC0710
:100328000030AD3D29082F02031D9C2928082E0204
:10033800031C9F29A029B3292808643EF000003037
:10034800293DF1002F087102031DAC292E08700207
:10035800031CAF29B029B3294B019217B5294B01CA
:1003680092130800F5007508F400F40DF40D41012E
:100378001D087406033974069D001D140D30890B81
:10038800C329000041019D149D18CB29CC29C829F7
:100398001C08F3001B08F200080082313922813161
:1003A80082311122813182312F22813182314122E1
:1003B80081318231212281318131FD2181318231A6
:1003C800492281310800003040012F0233300319DF
:1003D8002E02031CF029F129FA294B01921340013E
:1003E800AE01AF012B08A9002A08A8004E010E1380
:1003F800080062304B019F004F309D009C014E0168
:100408008C1296160030F2000030F300823156222A
:10041800813180304B019E0008004001980107306F
:10042800920007307E01B800B901BA013730BB002D
:100438003F30BC001A30940008004B019201013093
:1004480093008E018D018C019101023090008F3054
:100458008F0092170800603051018D008F019101C3
:10046800063093009001920108004F019601970110
:10047800980199019A019B010800E03041019E0012
:100488009B019C0101309D000800833052019F00B0
:100498004E010E1318170800640080010131890B02
:1004A800512A003473084001C2007208C1000800D4
:0604B8004B019E17080035
:020000040001F9
:0A000E00EC3FFE3F9F3FFF1FFF3F46
:00000001FF
