:020000040000FA
:020000002528B1
:100008007E1480314E01961E0A280B2813288C1E58
:100018000E280F28132881319C21803123280B1F9B
:10002800162817282328181F1A281B2823280E1FCC
:100038001E281F2823288131FD21803123287E1086
:1000480009002628FA01FB012030840000308500D1
:100058001530823165228031A0308400003085005F
:1000680040308231652280312030840001308500A3
:1000780040308231652280317E1040014328813131
:10008800E72180318B170B178231712280310030C4
:100098008131CC2180317308F7007208F600813174
:1000A8003021803177084001BA007608B900013064
:1000B8008131CC2180317308F7007208F600813154
:1000C80067218031E8304001B5000330B60076087A
:1000D8003502BE007708363BBF003F08803AB500BE
:1000E80080303502031D7A2832303E0203187D28FD
:1000F8007E28832832304001BE000030BF00400116
:100108008C1987288828A9280130B7070030B83DFE
:10011800C93037063804031D92289328AB283408C1
:1001280003199728992801309A280030B500350816
:10013800B4003403031DA128A228AB28BB01BB0AC5
:10014800E830BC000330BD00AB28B701B8013B0361
:10015800031DAF28B028DF283A082F02031DB62850
:1001680039082E02031CB928BA28DF28FF30BC073B
:10017800FF30BD3D3D08803AB50080303502031D93
:10018800C72801303C02031CCA28CB28DA284001C2
:100198003D08803AB5003F08803A3502031DD6284D
:1001A8003E083C020318D928DA28DC284001BB01A4
:1001B8004001AE01AF0105303102DD3003193002D4
:1001C800031CE728E828EC28B401BB01B001B10101
:1001D80034080319F028F12828293F08803AB50087
:1001E80083303502031DFA28DF303E02031CFD2848
:1001F800FE280429D0304001AC000730AD00132997
:1002080040013B08031909290A290F293D08AD00B7
:100218003C08AC0013293F08AD003E08AC00003094
:100228002D023C3003192C0203181B291C291D29F7
:100238008C1600302D02513003192C02031C25297D
:1002480026294B288C124B28BC01BD01D030AC00AC
:100258000730AD002629252840012235203E86009A
:1002680001308700403F7602F800413F773BF900B4
:100278007808A0077908A13D2235203E8600013084
:1002880087007608C03F7708C13F1F302206230445
:1002980003194F29502957292208013EA20000308E
:1002A800233DA3005929A201A3012108F900200830
:1002B800F8000530F936F80C890B5E297808F60045
:1002C8007908F70008007A35A03E86008701403F8C
:1002D8007602F800413F773BF90078084001A4070F
:1002E8007908A53D7A35A03E860087017608C03F8B
:1002F8007708C13F1F307A067B04031984298529B2
:100308008C297A08013EFA0000307B3DFB008E29DB
:10031800FA01FB012508F9002408F8000530F93630
:10032800F80C890B93297808F6007908F70008007B
:100338004E018C1201304001B0070030B13D013050
:10034800AE070030AF3D2B083102031DAD292A0846
:100358003002031CB029B129C9292A08C83EF00077
:1003680000302B3DF10031087102031DBD29300812
:100378007002031CC029C129C92934080319C529D9
:10038800C629C9294B019217CB294B0192130800A2
:10039800F5007508F400F40DF40D41011D0874060C
:1003A800033974069D001D140D30890BD9290000EE
:1003B80041019D149D18E129E229DE291C08F3005A
:1003C8001B08F200080082314E2281318231272237
:1003D8008131823144228131823156228131823108
:1003E8003722813182311322813182315E2281317B
:1003F8000800003040013102333003193002031C79
:10040800062A072A102A4B0192134001B001B101B4
:100418002D08AB002C08AA004E010E13080062300C
:100428004B019F004F309D009C014E018C12961687
:100438000030F2000030F30082316B2282318030CC
:100448004B019E00080040019801073092000730D8
:100458007E01B800B901BA013730BB003F30BC009B
:100468001A30940008004B019201013093008E016C
:100478008D018C019101023090008F308F000800AF
:10048800603051018D008F01910106309300900179
:10049800920108004F0196019701980199019A016C
:1004A8009B010800E03041019E009B019C01013046
:1004B8009D000800833052019F004E010E1318174B
:1004C8000800640080010131890B662A0034730832
:1004D8004001C1007208C00008004B019E170800C7
:020000040001F9
:0A000E00EC3FFE3F9F3FFF1FFF3F46
:00000001FF
